{
  "contractName": "Ginoa",
  "abi": [
    {
      "inputs": [],
      "stateMutability": "nonpayable",
      "type": "constructor"
    },
    {
      "anonymous": false,
      "inputs": [
        {
          "indexed": true,
          "internalType": "address",
          "name": "owner",
          "type": "address"
        },
        {
          "indexed": true,
          "internalType": "address",
          "name": "spender",
          "type": "address"
        },
        {
          "indexed": false,
          "internalType": "uint256",
          "name": "value",
          "type": "uint256"
        }
      ],
      "name": "Approval",
      "type": "event"
    },
    {
      "anonymous": false,
      "inputs": [
        {
          "indexed": false,
          "internalType": "address",
          "name": "buyer",
          "type": "address"
        },
        {
          "indexed": false,
          "internalType": "uint256",
          "name": "amountEther",
          "type": "uint256"
        },
        {
          "indexed": false,
          "internalType": "uint256",
          "name": "amountToken",
          "type": "uint256"
        }
      ],
      "name": "Buy",
      "type": "event"
    },
    {
      "anonymous": false,
      "inputs": [
        {
          "indexed": true,
          "internalType": "address",
          "name": "previousOwner",
          "type": "address"
        },
        {
          "indexed": true,
          "internalType": "address",
          "name": "newOwner",
          "type": "address"
        }
      ],
      "name": "OwnershipTransferred",
      "type": "event"
    },
    {
      "anonymous": false,
      "inputs": [
        {
          "indexed": true,
          "internalType": "address",
          "name": "from",
          "type": "address"
        },
        {
          "indexed": true,
          "internalType": "address",
          "name": "to",
          "type": "address"
        },
        {
          "indexed": false,
          "internalType": "uint256",
          "name": "value",
          "type": "uint256"
        }
      ],
      "name": "Transfer",
      "type": "event"
    },
    {
      "inputs": [
        {
          "internalType": "address",
          "name": "owner",
          "type": "address"
        },
        {
          "internalType": "address",
          "name": "spender",
          "type": "address"
        }
      ],
      "name": "allowance",
      "outputs": [
        {
          "internalType": "uint256",
          "name": "",
          "type": "uint256"
        }
      ],
      "stateMutability": "view",
      "type": "function"
    },
    {
      "inputs": [
        {
          "internalType": "address",
          "name": "spender",
          "type": "address"
        },
        {
          "internalType": "uint256",
          "name": "amount",
          "type": "uint256"
        }
      ],
      "name": "approve",
      "outputs": [
        {
          "internalType": "bool",
          "name": "",
          "type": "bool"
        }
      ],
      "stateMutability": "nonpayable",
      "type": "function"
    },
    {
      "inputs": [
        {
          "internalType": "address",
          "name": "account",
          "type": "address"
        }
      ],
      "name": "balanceOf",
      "outputs": [
        {
          "internalType": "uint256",
          "name": "",
          "type": "uint256"
        }
      ],
      "stateMutability": "view",
      "type": "function"
    },
    {
      "inputs": [
        {
          "internalType": "uint256",
          "name": "amount",
          "type": "uint256"
        }
      ],
      "name": "burn",
      "outputs": [],
      "stateMutability": "nonpayable",
      "type": "function"
    },
    {
      "inputs": [
        {
          "internalType": "address",
          "name": "account",
          "type": "address"
        },
        {
          "internalType": "uint256",
          "name": "amount",
          "type": "uint256"
        }
      ],
      "name": "burnFrom",
      "outputs": [],
      "stateMutability": "nonpayable",
      "type": "function"
    },
    {
      "inputs": [],
      "name": "decimals",
      "outputs": [
        {
          "internalType": "uint8",
          "name": "",
          "type": "uint8"
        }
      ],
      "stateMutability": "view",
      "type": "function"
    },
    {
      "inputs": [
        {
          "internalType": "address",
          "name": "spender",
          "type": "address"
        },
        {
          "internalType": "uint256",
          "name": "subtractedValue",
          "type": "uint256"
        }
      ],
      "name": "decreaseAllowance",
      "outputs": [
        {
          "internalType": "bool",
          "name": "",
          "type": "bool"
        }
      ],
      "stateMutability": "nonpayable",
      "type": "function"
    },
    {
      "inputs": [
        {
          "internalType": "address",
          "name": "spender",
          "type": "address"
        },
        {
          "internalType": "uint256",
          "name": "addedValue",
          "type": "uint256"
        }
      ],
      "name": "increaseAllowance",
      "outputs": [
        {
          "internalType": "bool",
          "name": "",
          "type": "bool"
        }
      ],
      "stateMutability": "nonpayable",
      "type": "function"
    },
    {
      "inputs": [],
      "name": "maxSupply",
      "outputs": [
        {
          "internalType": "uint256",
          "name": "",
          "type": "uint256"
        }
      ],
      "stateMutability": "view",
      "type": "function"
    },
    {
      "inputs": [],
      "name": "name",
      "outputs": [
        {
          "internalType": "string",
          "name": "",
          "type": "string"
        }
      ],
      "stateMutability": "view",
      "type": "function"
    },
    {
      "inputs": [],
      "name": "owner",
      "outputs": [
        {
          "internalType": "address",
          "name": "",
          "type": "address"
        }
      ],
      "stateMutability": "view",
      "type": "function"
    },
    {
      "inputs": [],
      "name": "renounceOwnership",
      "outputs": [],
      "stateMutability": "nonpayable",
      "type": "function"
    },
    {
      "inputs": [],
      "name": "symbol",
      "outputs": [
        {
          "internalType": "string",
          "name": "",
          "type": "string"
        }
      ],
      "stateMutability": "view",
      "type": "function"
    },
    {
      "inputs": [],
      "name": "tokenPerEther",
      "outputs": [
        {
          "internalType": "uint256",
          "name": "",
          "type": "uint256"
        }
      ],
      "stateMutability": "view",
      "type": "function"
    },
    {
      "inputs": [],
      "name": "totalMint",
      "outputs": [
        {
          "internalType": "uint256",
          "name": "",
          "type": "uint256"
        }
      ],
      "stateMutability": "view",
      "type": "function"
    },
    {
      "inputs": [],
      "name": "totalSupply",
      "outputs": [
        {
          "internalType": "uint256",
          "name": "",
          "type": "uint256"
        }
      ],
      "stateMutability": "view",
      "type": "function"
    },
    {
      "inputs": [
        {
          "internalType": "address",
          "name": "recipient",
          "type": "address"
        },
        {
          "internalType": "uint256",
          "name": "amount",
          "type": "uint256"
        }
      ],
      "name": "transfer",
      "outputs": [
        {
          "internalType": "bool",
          "name": "",
          "type": "bool"
        }
      ],
      "stateMutability": "nonpayable",
      "type": "function"
    },
    {
      "inputs": [
        {
          "internalType": "address",
          "name": "sender",
          "type": "address"
        },
        {
          "internalType": "address",
          "name": "recipient",
          "type": "address"
        },
        {
          "internalType": "uint256",
          "name": "amount",
          "type": "uint256"
        }
      ],
      "name": "transferFrom",
      "outputs": [
        {
          "internalType": "bool",
          "name": "",
          "type": "bool"
        }
      ],
      "stateMutability": "nonpayable",
      "type": "function"
    },
    {
      "inputs": [
        {
          "internalType": "address",
          "name": "newOwner",
          "type": "address"
        }
      ],
      "name": "transferOwnership",
      "outputs": [],
      "stateMutability": "nonpayable",
      "type": "function"
    },
    {
      "inputs": [
        {
          "internalType": "uint256",
          "name": "_amount",
          "type": "uint256"
        }
      ],
      "name": "checkTotalSupply",
      "outputs": [
        {
          "internalType": "bool",
          "name": "",
          "type": "bool"
        }
      ],
      "stateMutability": "view",
      "type": "function"
    },
    {
      "inputs": [],
      "name": "buy",
      "outputs": [],
      "stateMutability": "payable",
      "type": "function"
    },
    {
      "inputs": [],
      "name": "withdraw",
      "outputs": [],
      "stateMutability": "nonpayable",
      "type": "function"
    }
  ],
  "bytecode": "0x60806040526302faf0806008556200001c6200015860201b60201c565b600a6200002a9190620005fc565b63098968006200003b91906200064d565b600955611388600a553480156200005157600080fd5b506040518060400160405280600581526020017f47696e6f610000000000000000000000000000000000000000000000000000008152506040518060400160405280600381526020017f47494e00000000000000000000000000000000000000000000000000000000008152508160039080519060200190620000d6929190620003b2565b508060049080519060200190620000ef929190620003b2565b50505062000112620001066200016160201b60201c565b6200016960201b60201c565b6200015233620001276200015860201b60201c565b600a620001359190620005fc565b6302faf0806200014691906200064d565b6200022f60201b60201c565b62000821565b60006012905090565b600033905090565b6000600560009054906101000a900473ffffffffffffffffffffffffffffffffffffffff16905081600560006101000a81548173ffffffffffffffffffffffffffffffffffffffff021916908373ffffffffffffffffffffffffffffffffffffffff1602179055508173ffffffffffffffffffffffffffffffffffffffff168173ffffffffffffffffffffffffffffffffffffffff167f8be0079c531659141344cd1fd0a4f28419497f9722a3daafe3b4186f6b6457e060405160405180910390a35050565b600073ffffffffffffffffffffffffffffffffffffffff168273ffffffffffffffffffffffffffffffffffffffff161415620002a2576040517f08c379a000000000000000000000000000000000000000000000000000000000815260040162000299906200070f565b60405180910390fd5b620002b660008383620003a860201b60201c565b8060026000828254620002ca919062000731565b92505081905550806000808473ffffffffffffffffffffffffffffffffffffffff1673ffffffffffffffffffffffffffffffffffffffff168152602001908152602001600020600082825462000321919062000731565b925050819055508173ffffffffffffffffffffffffffffffffffffffff16600073ffffffffffffffffffffffffffffffffffffffff167fddf252ad1be2c89b69c2b068fc378daa952ba7f163c4a11628f55a4df523b3ef836040516200038891906200079f565b60405180910390a3620003a460008383620003ad60201b60201c565b5050565b505050565b505050565b828054620003c090620007eb565b90600052602060002090601f016020900481019282620003e4576000855562000430565b82601f10620003ff57805160ff191683800117855562000430565b8280016001018555821562000430579182015b828111156200042f57825182559160200191906001019062000412565b5b5090506200043f919062000443565b5090565b5b808211156200045e57600081600090555060010162000444565b5090565b7f4e487b7100000000000000000000000000000000000000000000000000000000600052601160045260246000fd5b60008160011c9050919050565b6000808291508390505b6001851115620004f057808604811115620004c857620004c762000462565b5b6001851615620004d85780820291505b8081029050620004e88562000491565b9450620004a8565b94509492505050565b6000826200050b5760019050620005de565b816200051b5760009050620005de565b81600181146200053457600281146200053f5762000575565b6001915050620005de565b60ff84111562000554576200055362000462565b5b8360020a9150848211156200056e576200056d62000462565b5b50620005de565b5060208310610133831016604e8410600b8410161715620005af5782820a905083811115620005a957620005a862000462565b5b620005de565b620005be84848460016200049e565b92509050818404811115620005d857620005d762000462565b5b81810290505b9392505050565b6000819050919050565b600060ff82169050919050565b60006200060982620005e5565b91506200061683620005ef565b9250620006457fffffffffffffffffffffffffffffffffffffffffffffffffffffffffffffffff8484620004f9565b905092915050565b60006200065a82620005e5565b91506200066783620005e5565b9250817fffffffffffffffffffffffffffffffffffffffffffffffffffffffffffffffff0483118215151615620006a357620006a262000462565b5b828202905092915050565b600082825260208201905092915050565b7f45524332303a206d696e7420746f20746865207a65726f206164647265737300600082015250565b6000620006f7601f83620006ae565b91506200070482620006bf565b602082019050919050565b600060208201905081810360008301526200072a81620006e8565b9050919050565b60006200073e82620005e5565b91506200074b83620005e5565b9250827fffffffffffffffffffffffffffffffffffffffffffffffffffffffffffffffff0382111562000783576200078262000462565b5b828201905092915050565b6200079981620005e5565b82525050565b6000602082019050620007b660008301846200078e565b92915050565b7f4e487b7100000000000000000000000000000000000000000000000000000000600052602260045260246000fd5b600060028204905060018216806200080457607f821691505b602082108114156200081b576200081a620007bc565b5b50919050565b6125c580620008316000396000f3fe6080604052600436106101355760003560e01c8063715018a6116100ab578063a457c2d71161006f578063a457c2d714610418578063a6f2ae3a14610455578063a9059cbb1461045f578063d5abeb011461049c578063dd62ed3e146104c7578063f2fde38b1461050457610135565b8063715018a61461034557806379cc67901461035c57806385018146146103855780638da5cb5b146103c257806395d89b41146103ed57610135565b8063313ce567116100fd578063313ce5671461023557806339509351146102605780633ccfd60b1461029d57806342966c68146102b457806359a7715a146102dd57806370a082311461030857610135565b806306fdde031461013a578063095ea7b31461016557806318160ddd146101a257806323b872dd146101cd5780632f77dba41461020a575b600080fd5b34801561014657600080fd5b5061014f61052d565b60405161015c91906117db565b60405180910390f35b34801561017157600080fd5b5061018c60048036038101906101879190611896565b6105bf565b60405161019991906118f1565b60405180910390f35b3480156101ae57600080fd5b506101b76105dd565b6040516101c4919061191b565b60405180910390f35b3480156101d957600080fd5b506101f460048036038101906101ef9190611936565b6105e7565b60405161020191906118f1565b60405180910390f35b34801561021657600080fd5b5061021f6106df565b60405161022c919061191b565b60405180910390f35b34801561024157600080fd5b5061024a6106e5565b60405161025791906119a5565b60405180910390f35b34801561026c57600080fd5b5061028760048036038101906102829190611896565b6106ee565b60405161029491906118f1565b60405180910390f35b3480156102a957600080fd5b506102b261079a565b005b3480156102c057600080fd5b506102db60048036038101906102d691906119c0565b61090e565b005b3480156102e957600080fd5b506102f2610922565b6040516102ff919061191b565b60405180910390f35b34801561031457600080fd5b5061032f600480360381019061032a91906119ed565b610928565b60405161033c919061191b565b60405180910390f35b34801561035157600080fd5b5061035a610970565b005b34801561036857600080fd5b50610383600480360381019061037e9190611896565b6109f8565b005b34801561039157600080fd5b506103ac60048036038101906103a791906119c0565b610a73565b6040516103b991906118f1565b60405180910390f35b3480156103ce57600080fd5b506103d7610a9f565b6040516103e49190611a29565b60405180910390f35b3480156103f957600080fd5b50610402610ac9565b60405161040f91906117db565b60405180910390f35b34801561042457600080fd5b5061043f600480360381019061043a9190611896565b610b5b565b60405161044c91906118f1565b60405180910390f35b61045d610c46565b005b34801561046b57600080fd5b5061048660048036038101906104819190611896565b610d44565b60405161049391906118f1565b60405180910390f35b3480156104a857600080fd5b506104b1610d62565b6040516104be919061191b565b60405180910390f35b3480156104d357600080fd5b506104ee60048036038101906104e99190611a44565b610d68565b6040516104fb919061191b565b60405180910390f35b34801561051057600080fd5b5061052b600480360381019061052691906119ed565b610def565b005b60606003805461053c90611ab3565b80601f016020809104026020016040519081016040528092919081815260200182805461056890611ab3565b80156105b55780601f1061058a576101008083540402835291602001916105b5565b820191906000526020600020905b81548152906001019060200180831161059857829003601f168201915b5050505050905090565b60006105d36105cc610ee7565b8484610eef565b6001905092915050565b6000600254905090565b60006105f48484846110ba565b6000600160008673ffffffffffffffffffffffffffffffffffffffff1673ffffffffffffffffffffffffffffffffffffffff168152602001908152602001600020600061063f610ee7565b73ffffffffffffffffffffffffffffffffffffffff1673ffffffffffffffffffffffffffffffffffffffff168152602001908152602001600020549050828110156106bf576040517f08c379a00000000000000000000000000000000000000000000000000000000081526004016106b690611b57565b60405180910390fd5b6106d3856106cb610ee7565b858403610eef565b60019150509392505050565b600a5481565b60006012905090565b60006107906106fb610ee7565b848460016000610709610ee7565b73ffffffffffffffffffffffffffffffffffffffff1673ffffffffffffffffffffffffffffffffffffffff16815260200190815260200160002060008873ffffffffffffffffffffffffffffffffffffffff1673ffffffffffffffffffffffffffffffffffffffff1681526020019081526020016000205461078b9190611ba6565b610eef565b6001905092915050565b6107a2610ee7565b73ffffffffffffffffffffffffffffffffffffffff166107c0610a9f565b73ffffffffffffffffffffffffffffffffffffffff1614610816576040517f08c379a000000000000000000000000000000000000000000000000000000000815260040161080d90611c48565b60405180910390fd5b60004790506000811161085e576040517f08c379a000000000000000000000000000000000000000000000000000000000815260040161085590611cda565b60405180910390fd5b60003373ffffffffffffffffffffffffffffffffffffffff164760405161088490611d2b565b60006040518083038185875af1925050503d80600081146108c1576040519150601f19603f3d011682016040523d82523d6000602084013e6108c6565b606091505b505090508061090a576040517f08c379a000000000000000000000000000000000000000000000000000000000815260040161090190611db2565b60405180910390fd5b5050565b61091f610919610ee7565b8261133b565b50565b60085481565b60008060008373ffffffffffffffffffffffffffffffffffffffff1673ffffffffffffffffffffffffffffffffffffffff168152602001908152602001600020549050919050565b610978610ee7565b73ffffffffffffffffffffffffffffffffffffffff16610996610a9f565b73ffffffffffffffffffffffffffffffffffffffff16146109ec576040517f08c379a00000000000000000000000000000000000000000000000000000000081526004016109e390611c48565b60405180910390fd5b6109f66000611512565b565b6000610a0b83610a06610ee7565b610d68565b905081811015610a50576040517f08c379a0000000000000000000000000000000000000000000000000000000008152600401610a4790611e44565b60405180910390fd5b610a6483610a5c610ee7565b848403610eef565b610a6e838361133b565b505050565b600060095482600854610a869190611ba6565b1115610a955760009050610a9a565b600190505b919050565b6000600560009054906101000a900473ffffffffffffffffffffffffffffffffffffffff16905090565b606060048054610ad890611ab3565b80601f0160208091040260200160405190810160405280929190818152602001828054610b0490611ab3565b8015610b515780601f10610b2657610100808354040283529160200191610b51565b820191906000526020600020905b815481529060010190602001808311610b3457829003601f168201915b5050505050905090565b60008060016000610b6a610ee7565b73ffffffffffffffffffffffffffffffffffffffff1673ffffffffffffffffffffffffffffffffffffffff16815260200190815260200160002060008573ffffffffffffffffffffffffffffffffffffffff1673ffffffffffffffffffffffffffffffffffffffff16815260200190815260200160002054905082811015610c27576040517f08c379a0000000000000000000000000000000000000000000000000000000008152600401610c1e90611ed6565b60405180910390fd5b610c3b610c32610ee7565b85858403610eef565b600191505092915050565b6000600a5434610c569190611ef6565b905060003411610c9b576040517f08c379a0000000000000000000000000000000000000000000000000000000008152600401610c9290611f9c565b60405180910390fd5b610ca481610a73565b610ce3576040517f08c379a0000000000000000000000000000000000000000000000000000000008152600401610cda90612008565b60405180910390fd5b610ced33826115d8565b8060086000828254610cff9190611ba6565b925050819055507f1cbc5ab135991bd2b6a4b034a04aa2aa086dac1371cb9b16b8b5e2ed6b036bed333483604051610d3993929190612028565b60405180910390a150565b6000610d58610d51610ee7565b84846110ba565b6001905092915050565b60095481565b6000600160008473ffffffffffffffffffffffffffffffffffffffff1673ffffffffffffffffffffffffffffffffffffffff16815260200190815260200160002060008373ffffffffffffffffffffffffffffffffffffffff1673ffffffffffffffffffffffffffffffffffffffff16815260200190815260200160002054905092915050565b610df7610ee7565b73ffffffffffffffffffffffffffffffffffffffff16610e15610a9f565b73ffffffffffffffffffffffffffffffffffffffff1614610e6b576040517f08c379a0000000000000000000000000000000000000000000000000000000008152600401610e6290611c48565b60405180910390fd5b600073ffffffffffffffffffffffffffffffffffffffff168173ffffffffffffffffffffffffffffffffffffffff161415610edb576040517f08c379a0000000000000000000000000000000000000000000000000000000008152600401610ed2906120d1565b60405180910390fd5b610ee481611512565b50565b600033905090565b600073ffffffffffffffffffffffffffffffffffffffff168373ffffffffffffffffffffffffffffffffffffffff161415610f5f576040517f08c379a0000000000000000000000000000000000000000000000000000000008152600401610f5690612163565b60405180910390fd5b600073ffffffffffffffffffffffffffffffffffffffff168273ffffffffffffffffffffffffffffffffffffffff161415610fcf576040517f08c379a0000000000000000000000000000000000000000000000000000000008152600401610fc6906121f5565b60405180910390fd5b80600160008573ffffffffffffffffffffffffffffffffffffffff1673ffffffffffffffffffffffffffffffffffffffff16815260200190815260200160002060008473ffffffffffffffffffffffffffffffffffffffff1673ffffffffffffffffffffffffffffffffffffffff168152602001908152602001600020819055508173ffffffffffffffffffffffffffffffffffffffff168373ffffffffffffffffffffffffffffffffffffffff167f8c5be1e5ebec7d5bd14f71427d1e84f3dd0314c0f7b2291e5b200ac8c7c3b925836040516110ad919061191b565b60405180910390a3505050565b600073ffffffffffffffffffffffffffffffffffffffff168373ffffffffffffffffffffffffffffffffffffffff16141561112a576040517f08c379a000000000000000000000000000000000000000000000000000000000815260040161112190612287565b60405180910390fd5b600073ffffffffffffffffffffffffffffffffffffffff168273ffffffffffffffffffffffffffffffffffffffff16141561119a576040517f08c379a000000000000000000000000000000000000000000000000000000000815260040161119190612319565b60405180910390fd5b6111a5838383611738565b60008060008573ffffffffffffffffffffffffffffffffffffffff1673ffffffffffffffffffffffffffffffffffffffff1681526020019081526020016000205490508181101561122b576040517f08c379a0000000000000000000000000000000000000000000000000000000008152600401611222906123ab565b60405180910390fd5b8181036000808673ffffffffffffffffffffffffffffffffffffffff1673ffffffffffffffffffffffffffffffffffffffff16815260200190815260200160002081905550816000808573ffffffffffffffffffffffffffffffffffffffff1673ffffffffffffffffffffffffffffffffffffffff16815260200190815260200160002060008282546112be9190611ba6565b925050819055508273ffffffffffffffffffffffffffffffffffffffff168473ffffffffffffffffffffffffffffffffffffffff167fddf252ad1be2c89b69c2b068fc378daa952ba7f163c4a11628f55a4df523b3ef84604051611322919061191b565b60405180910390a361133584848461173d565b50505050565b600073ffffffffffffffffffffffffffffffffffffffff168273ffffffffffffffffffffffffffffffffffffffff1614156113ab576040517f08c379a00000000000000000000000000000000000000000000000000000000081526004016113a29061243d565b60405180910390fd5b6113b782600083611738565b60008060008473ffffffffffffffffffffffffffffffffffffffff1673ffffffffffffffffffffffffffffffffffffffff1681526020019081526020016000205490508181101561143d576040517f08c379a0000000000000000000000000000000000000000000000000000000008152600401611434906124cf565b60405180910390fd5b8181036000808573ffffffffffffffffffffffffffffffffffffffff1673ffffffffffffffffffffffffffffffffffffffff16815260200190815260200160002081905550816002600082825461149491906124ef565b92505081905550600073ffffffffffffffffffffffffffffffffffffffff168373ffffffffffffffffffffffffffffffffffffffff167fddf252ad1be2c89b69c2b068fc378daa952ba7f163c4a11628f55a4df523b3ef846040516114f9919061191b565b60405180910390a361150d8360008461173d565b505050565b6000600560009054906101000a900473ffffffffffffffffffffffffffffffffffffffff16905081600560006101000a81548173ffffffffffffffffffffffffffffffffffffffff021916908373ffffffffffffffffffffffffffffffffffffffff1602179055508173ffffffffffffffffffffffffffffffffffffffff168173ffffffffffffffffffffffffffffffffffffffff167f8be0079c531659141344cd1fd0a4f28419497f9722a3daafe3b4186f6b6457e060405160405180910390a35050565b600073ffffffffffffffffffffffffffffffffffffffff168273ffffffffffffffffffffffffffffffffffffffff161415611648576040517f08c379a000000000000000000000000000000000000000000000000000000000815260040161163f9061256f565b60405180910390fd5b61165460008383611738565b80600260008282546116669190611ba6565b92505081905550806000808473ffffffffffffffffffffffffffffffffffffffff1673ffffffffffffffffffffffffffffffffffffffff16815260200190815260200160002060008282546116bb9190611ba6565b925050819055508173ffffffffffffffffffffffffffffffffffffffff16600073ffffffffffffffffffffffffffffffffffffffff167fddf252ad1be2c89b69c2b068fc378daa952ba7f163c4a11628f55a4df523b3ef83604051611720919061191b565b60405180910390a36117346000838361173d565b5050565b505050565b505050565b600081519050919050565b600082825260208201905092915050565b60005b8381101561177c578082015181840152602081019050611761565b8381111561178b576000848401525b50505050565b6000601f19601f8301169050919050565b60006117ad82611742565b6117b7818561174d565b93506117c781856020860161175e565b6117d081611791565b840191505092915050565b600060208201905081810360008301526117f581846117a2565b905092915050565b600080fd5b600073ffffffffffffffffffffffffffffffffffffffff82169050919050565b600061182d82611802565b9050919050565b61183d81611822565b811461184857600080fd5b50565b60008135905061185a81611834565b92915050565b6000819050919050565b61187381611860565b811461187e57600080fd5b50565b6000813590506118908161186a565b92915050565b600080604083850312156118ad576118ac6117fd565b5b60006118bb8582860161184b565b92505060206118cc85828601611881565b9150509250929050565b60008115159050919050565b6118eb816118d6565b82525050565b600060208201905061190660008301846118e2565b92915050565b61191581611860565b82525050565b6000602082019050611930600083018461190c565b92915050565b60008060006060848603121561194f5761194e6117fd565b5b600061195d8682870161184b565b935050602061196e8682870161184b565b925050604061197f86828701611881565b9150509250925092565b600060ff82169050919050565b61199f81611989565b82525050565b60006020820190506119ba6000830184611996565b92915050565b6000602082840312156119d6576119d56117fd565b5b60006119e484828501611881565b91505092915050565b600060208284031215611a0357611a026117fd565b5b6000611a118482850161184b565b91505092915050565b611a2381611822565b82525050565b6000602082019050611a3e6000830184611a1a565b92915050565b60008060408385031215611a5b57611a5a6117fd565b5b6000611a698582860161184b565b9250506020611a7a8582860161184b565b9150509250929050565b7f4e487b7100000000000000000000000000000000000000000000000000000000600052602260045260246000fd5b60006002820490506001821680611acb57607f821691505b60208210811415611adf57611ade611a84565b5b50919050565b7f45524332303a207472616e7366657220616d6f756e742065786365656473206160008201527f6c6c6f77616e6365000000000000000000000000000000000000000000000000602082015250565b6000611b4160288361174d565b9150611b4c82611ae5565b604082019050919050565b60006020820190508181036000830152611b7081611b34565b9050919050565b7f4e487b7100000000000000000000000000000000000000000000000000000000600052601160045260246000fd5b6000611bb182611860565b9150611bbc83611860565b9250827fffffffffffffffffffffffffffffffffffffffffffffffffffffffffffffffff03821115611bf157611bf0611b77565b5b828201905092915050565b7f4f776e61626c653a2063616c6c6572206973206e6f7420746865206f776e6572600082015250565b6000611c3260208361174d565b9150611c3d82611bfc565b602082019050919050565b60006020820190508181036000830152611c6181611c25565b9050919050565b7f4f776e657220686173206e6f742062616c616e636520746f207769746864726160008201527f7700000000000000000000000000000000000000000000000000000000000000602082015250565b6000611cc460218361174d565b9150611ccf82611c68565b604082019050919050565b60006020820190508181036000830152611cf381611cb7565b9050919050565b600081905092915050565b50565b6000611d15600083611cfa565b9150611d2082611d05565b600082019050919050565b6000611d3682611d08565b9150819050919050565b7f4661696c656420746f2073656e6420757365722062616c616e6365206261636b60008201527f20746f20746865206f776e657200000000000000000000000000000000000000602082015250565b6000611d9c602d8361174d565b9150611da782611d40565b604082019050919050565b60006020820190508181036000830152611dcb81611d8f565b9050919050565b7f45524332303a206275726e20616d6f756e74206578636565647320616c6c6f7760008201527f616e636500000000000000000000000000000000000000000000000000000000602082015250565b6000611e2e60248361174d565b9150611e3982611dd2565b604082019050919050565b60006020820190508181036000830152611e5d81611e21565b9050919050565b7f45524332303a2064656372656173656420616c6c6f77616e63652062656c6f7760008201527f207a65726f000000000000000000000000000000000000000000000000000000602082015250565b6000611ec060258361174d565b9150611ecb82611e64565b604082019050919050565b60006020820190508181036000830152611eef81611eb3565b9050919050565b6000611f0182611860565b9150611f0c83611860565b9250817fffffffffffffffffffffffffffffffffffffffffffffffffffffffffffffffff0483118215151615611f4557611f44611b77565b5b828202905092915050565b7f53656e642045544820746f2062757920736f6d6520746f6b656e730000000000600082015250565b6000611f86601b8361174d565b9150611f9182611f50565b602082019050919050565b60006020820190508181036000830152611fb581611f79565b9050919050565b7f4d696e74696e67206c696d697420697320726561636865640000000000000000600082015250565b6000611ff260188361174d565b9150611ffd82611fbc565b602082019050919050565b6000602082019050818103600083015261202181611fe5565b9050919050565b600060608201905061203d6000830186611a1a565b61204a602083018561190c565b612057604083018461190c565b949350505050565b7f4f776e61626c653a206e6577206f776e657220697320746865207a65726f206160008201527f6464726573730000000000000000000000000000000000000000000000000000602082015250565b60006120bb60268361174d565b91506120c68261205f565b604082019050919050565b600060208201905081810360008301526120ea816120ae565b9050919050565b7f45524332303a20617070726f76652066726f6d20746865207a65726f2061646460008201527f7265737300000000000000000000000000000000000000000000000000000000602082015250565b600061214d60248361174d565b9150612158826120f1565b604082019050919050565b6000602082019050818103600083015261217c81612140565b9050919050565b7f45524332303a20617070726f766520746f20746865207a65726f20616464726560008201527f7373000000000000000000000000000000000000000000000000000000000000602082015250565b60006121df60228361174d565b91506121ea82612183565b604082019050919050565b6000602082019050818103600083015261220e816121d2565b9050919050565b7f45524332303a207472616e736665722066726f6d20746865207a65726f20616460008201527f6472657373000000000000000000000000000000000000000000000000000000602082015250565b600061227160258361174d565b915061227c82612215565b604082019050919050565b600060208201905081810360008301526122a081612264565b9050919050565b7f45524332303a207472616e7366657220746f20746865207a65726f206164647260008201527f6573730000000000000000000000000000000000000000000000000000000000602082015250565b600061230360238361174d565b915061230e826122a7565b604082019050919050565b60006020820190508181036000830152612332816122f6565b9050919050565b7f45524332303a207472616e7366657220616d6f756e742065786365656473206260008201527f616c616e63650000000000000000000000000000000000000000000000000000602082015250565b600061239560268361174d565b91506123a082612339565b604082019050919050565b600060208201905081810360008301526123c481612388565b9050919050565b7f45524332303a206275726e2066726f6d20746865207a65726f2061646472657360008201527f7300000000000000000000000000000000000000000000000000000000000000602082015250565b600061242760218361174d565b9150612432826123cb565b604082019050919050565b600060208201905081810360008301526124568161241a565b9050919050565b7f45524332303a206275726e20616d6f756e7420657863656564732062616c616e60008201527f6365000000000000000000000000000000000000000000000000000000000000602082015250565b60006124b960228361174d565b91506124c48261245d565b604082019050919050565b600060208201905081810360008301526124e8816124ac565b9050919050565b60006124fa82611860565b915061250583611860565b92508282101561251857612517611b77565b5b828203905092915050565b7f45524332303a206d696e7420746f20746865207a65726f206164647265737300600082015250565b6000612559601f8361174d565b915061256482612523565b602082019050919050565b600060208201905081810360008301526125888161254c565b905091905056fea26469706673582212207a3fd81cb8d1a354d990c34a350ac06ff54ff627922cc7b48ba82d665938ff4e64736f6c63430008090033",
  "immutableReferences": {},
  "source": "// SPDX-License-Identifier: MIT\npragma solidity ^0.8.9;\n\nimport \"@openzeppelin/contracts/token/ERC20/ERC20.sol\";\nimport \"@openzeppelin/contracts/token/ERC20/IERC20.sol\";\nimport \"@openzeppelin/contracts/token/ERC20/extensions/ERC20Burnable.sol\";\nimport \"@openzeppelin/contracts/access/Ownable.sol\";\n\ncontract Ginoa is ERC20, ERC20Burnable, Ownable {\n    mapping (address=>uint) balances;\n    mapping (address => uint) balance;\n    uint public totalMint = 50000000;\n    uint public maxSupply = 160000000 * 10 ** decimals();\n    uint256 public tokenPerEther = 5000;\n    constructor() ERC20(\"Ginoa\", \"GIN\") {\n        _mint(msg.sender, 50000000 * 10 ** decimals());\n    }\n    event Buy(address buyer, uint256 amountEther, uint256 amountToken);\n    function checkTotalSupply(uint _amount) public view returns(bool){\n        if (totalMint + _amount > maxSupply){\n            return false;\n        }else{\n            return true;\n        }\n}\n    function buy() payable public{\n        uint256 amountToBuy = msg.value * tokenPerEther;\n        require(msg.value > 0, \"Send ETH to buy some tokens\");\n        require(checkTotalSupply(amountToBuy), 'Minting limit is reached');\n        _mint(msg.sender, amountToBuy);\n        totalMint += amountToBuy;\n        emit Buy(msg.sender, msg.value, amountToBuy);\n        \n}\n    function withdraw() public onlyOwner{\n        uint256 ownerBalance = address(this).balance;\n        require(ownerBalance > 0, \"Owner has not balance to withdraw\");\n\n        (bool sent,) = msg.sender.call{value: address(this).balance}(\"\");\n        require(sent, \"Failed to send user balance back to the owner\");\n}\n}",
  "sourcePath": "/Users/erdemakdemir/Documents/Projects/ginoatoken/contracts/GinoaCrowdsale.sol",
  "compiler": {
    "name": "solc",
    "version": "0.8.9+commit.e5eed63a.Emscripten.clang"
  },
  "schemaVersion": "3.4.3",
  "updatedAt": "2021-10-20T10:14:55.520Z",
  "devdoc": {
    "kind": "dev",
    "methods": {
      "allowance(address,address)": {
        "details": "See {IERC20-allowance}."
      },
      "approve(address,uint256)": {
        "details": "See {IERC20-approve}. Requirements: - `spender` cannot be the zero address."
      },
      "balanceOf(address)": {
        "details": "See {IERC20-balanceOf}."
      },
      "burn(uint256)": {
        "details": "Destroys `amount` tokens from the caller. See {ERC20-_burn}."
      },
      "burnFrom(address,uint256)": {
        "details": "Destroys `amount` tokens from `account`, deducting from the caller's allowance. See {ERC20-_burn} and {ERC20-allowance}. Requirements: - the caller must have allowance for ``accounts``'s tokens of at least `amount`."
      },
      "decimals()": {
        "details": "Returns the number of decimals used to get its user representation. For example, if `decimals` equals `2`, a balance of `505` tokens should be displayed to a user as `5.05` (`505 / 10 ** 2`). Tokens usually opt for a value of 18, imitating the relationship between Ether and Wei. This is the value {ERC20} uses, unless this function is overridden; NOTE: This information is only used for _display_ purposes: it in no way affects any of the arithmetic of the contract, including {IERC20-balanceOf} and {IERC20-transfer}."
      },
      "decreaseAllowance(address,uint256)": {
        "details": "Atomically decreases the allowance granted to `spender` by the caller. This is an alternative to {approve} that can be used as a mitigation for problems described in {IERC20-approve}. Emits an {Approval} event indicating the updated allowance. Requirements: - `spender` cannot be the zero address. - `spender` must have allowance for the caller of at least `subtractedValue`."
      },
      "increaseAllowance(address,uint256)": {
        "details": "Atomically increases the allowance granted to `spender` by the caller. This is an alternative to {approve} that can be used as a mitigation for problems described in {IERC20-approve}. Emits an {Approval} event indicating the updated allowance. Requirements: - `spender` cannot be the zero address."
      },
      "name()": {
        "details": "Returns the name of the token."
      },
      "owner()": {
        "details": "Returns the address of the current owner."
      },
      "renounceOwnership()": {
        "details": "Leaves the contract without owner. It will not be possible to call `onlyOwner` functions anymore. Can only be called by the current owner. NOTE: Renouncing ownership will leave the contract without an owner, thereby removing any functionality that is only available to the owner."
      },
      "symbol()": {
        "details": "Returns the symbol of the token, usually a shorter version of the name."
      },
      "totalSupply()": {
        "details": "See {IERC20-totalSupply}."
      },
      "transfer(address,uint256)": {
        "details": "See {IERC20-transfer}. Requirements: - `recipient` cannot be the zero address. - the caller must have a balance of at least `amount`."
      },
      "transferFrom(address,address,uint256)": {
        "details": "See {IERC20-transferFrom}. Emits an {Approval} event indicating the updated allowance. This is not required by the EIP. See the note at the beginning of {ERC20}. Requirements: - `sender` and `recipient` cannot be the zero address. - `sender` must have a balance of at least `amount`. - the caller must have allowance for ``sender``'s tokens of at least `amount`."
      },
      "transferOwnership(address)": {
        "details": "Transfers ownership of the contract to a new account (`newOwner`). Can only be called by the current owner."
      }
    },
    "version": 1
  },
  "userdoc": {
    "kind": "user",
    "methods": {},
    "version": 1
  }
}